:020000040800F2
:10000000404800242D0400085F4000081F3E0008FF
:100010005D40000887060008994F000800000000B6
:100020000000000000000000000000006D03000858
:10003000B908000800000000C9030008A942000830
:100040004704000847040008470400084704000864
:100050004704000847040008470400084704000854
:100060004704000847040008470400088906000800
:1000700095060008470400084704000847040008E4
:100080004704000847040008470400084704000824
:100090004704000847040008470400084704000814
:1000A0004704000847040008470400084704000804
:1000B00047040008470400084704000847040008F4
:1000C00047040008470400084704000847040008E4
:1000D000470400088D4F0008470400084704000843
:1000E0004704000847040008000000004704000817
:1000F00047040008470400084704000847040008B4
:1001000047040008470400084704000847040008A3
:100110004704000847040008470400084704000893
:100120004704000847040008470400084704000883
:100130004704000847040008470400084704000873
:1001400000000000000000000000000000000000AF
:100150004704000847040008470400084704000853
:100160004704000847040008470400084704000843
:100170004704000847040008470400080000000086
:100180004704000847040008470400084704000823
:100190004704000847040008470400084704000813
:1001A0004704000847040008470400080000000056
:1001B00047040008470400084704000847040008F3
:1001C0004704000847040008000000000000000089
:1001D00000000000000000004704000800000000CC
:1001E000000000000000000000000000000000000F
:1001F0000000000000000000470400084704000859
:1002000047040008470400080000000047040008F5
:100210004704000847040008470400084704000892
:100220004704000800000000470400080000000028
:1002300047040008470400080000000047040008C5
:100240004704000847040008470400084704000862
:100250004704000847040008470400084704000852
:100260004704000847040008470400084704000842
:100270004704000847040008470400080000000085
:100280004704000847040008470400084704000822
:1002900000000000470400084704000800000000B8
:1002A0000000000047040008470400084704000855
:1002B00047040008470400084704000847040008F2
:1002C00047040008470400084704000800F002F84B
:1002D00000F03CF80AA090E8000C82448344AAF1A4
:1002E0000107DA4501D100F031F8AFF2090EBAE8A2
:1002F0000F0013F0010F18BFFB1A43F0010318475A
:10030000B0580000D0580000103A24BF78C878C117
:10031000FAD8520724BF30C830C144BF04680C600B
:10032000704700000023002400250026103A28BF53
:1003300078C1FBD8520728BF30C148BF0B60704757
:100340001FB505F0FBFB1FBD10B510BD00F061F936
:100350001146FFF7F5FF04F031FE00F07FF903B41A
:10036000FFF7F2FF03BC00F087F900002C4B19687F
:100370000868B0E8F04F80F30988BFF36F8F4FF043
:10038000000080F3118870470000000008480068F2
:10039000006880F308884FF0000080F3148862B68C
:1003A00061B6BFF34F8FBFF36F8F00DF00BF00BF99
:1003B00008ED00E0DFF80C00016841F47001016015
:1003C000704700BF88ED00E0EFF30980BFF36F8F47
:1003D000134B1A681EF0100F08BF20ED108A20E999
:1003E000F04F106009B44FF0500080F31188BFF354
:1003F0004F8FBFF36F8F05F0B5F94FF0000080F31A
:10040000118809BC19680868B0E8F04F1EF0100F99
:1004100008BFB0EC108A80F30988BFF36F8F704774
:1004200018000024EFF3058070470000094880475A
:1004300009480047FEE7FEE7FEE7FEE7FEE7FEE7C6
:10044000FEE7FEE7FEE7FEE704480549054A064BDE
:100450007047000059430008CD02000840420024C4
:1004600040480024404400244044002453EA020C45
:1004700000F069802DE9F04B4FF00006002B1FBF04
:10048000B3FA83F503FA05F424FA05F65E4012BFC9
:100490001643B2FA82F502FA05F4C5F120051EBF33
:1004A00022FA05FC44EA0C04203556EA044C4FEAD3
:1004B000144418BF641C4FF000084FF0000990422C
:1004C00071EB030C39D3002919BFB1FA81F701FA96
:1004D00007F6B0FA80F700FA07F6C7F120071EBF4B
:1004E00020FA07FC46EA0C062037B6FBF4FCA7EB23
:1004F0000507103F07F01F0BCBF120060CFA0BFB92
:100500002CFA06F644BFB3460026202FA4BF5E4651
:100510004FF0000B5BEA060C08BF4FF0010B19EB24
:100520000B09ABFB027C48EB0608C01B06FB02CCA8
:100530000BFB03CC71EB0C01C1E70B4602464146B5
:100540004846BDE8F08B13B54FF000004FF00001B6
:10055000AFF30080BDE81C40704710B5203AC0F0F2
:100560000B80B1E81850203AA0E81850B1E81850B4
:10057000A0E81850BFF4F5AF5FEA027C24BFB1E8F1
:100580001850A0E8185044BF18C918C0BDE8104062
:100590005FEA827C24BF51F8043B40F8043B08BF6B
:1005A0007047D20728BF31F8023B48BF11F8012B32
:1005B00028BF20F8023B48BF00F8012B70474FF0DE
:1005C000000200B5134694469646203922BFA0E8A3
:1005D0000C50A0E80C50B1F12001BFF4F7AF0907AF
:1005E00028BFA0E80C5048BF0CC05DF804EB8900A0
:1005F00028BF40F8042B08BF704748BF20F8022BE3
:1006000011F0804F18BF00F8012B704770477047FA
:100610007047754600F02CF8AE4605006946534613
:1006200020F00700854618B020B5FFF70DFFBDE8A4
:1006300020404FF000064FF000074FF000084FF049
:10064000000B21F00701AC46ACE8C009ACE8C009DA
:10065000ACE8C009ACE8C0098D46704710B5044647
:10066000AFF300802046BDE81040FFF778BE0000E1
:1006700000487047E041002401491820ABBEFEE766
:10068000260002007047FEE7014800F00BBC0000A6
:1006900000040024014800F005BC00007804002498
:1006A000294A016891423AD0274A1832914236D0FD
:1006B000254A3032914232D0234A483291422ED0DC
:1006C000214A603291422AD01F4A7832914226D084
:1006D0001D4A9032914222D01B4AA83291421ED02C
:1006E0001A4A91421BD0194A1832914217D0174A20
:1006F0003032914213D0154A483291420FD0134AFA
:10070000603291420BD0114A7832914207D00F4AA1
:100710009032914203D00D4AA832914211D1CAB20F
:100720001823103AB2FBF3F26FF30901032A02F027
:100730000703074AD25CC26500D9091D81650846D6
:10074000704721F0FF01F9E7100002401004024059
:10075000645B000830B5224A012301689142CAB2A5
:100760001BD01F4C1434A14217D01D4C2834A14279
:1007700013D01B4C3C34A1420FD0194C5034A14231
:100780000BD0174C6434A14207D0154C7834A142E9
:1007900003D0134C8C34A1420CD11421114C083AD3
:1007A000B2FBF1F10F4A803201F01F0504EB810129
:1007B000AB4010E00C4D1824103A0D44B2FBF4F19C
:1007C000A82D00D80831094A01F01F0402EB81016D
:1007D000064AA3408032603080E80E0030BD000041
:1007E0000854025800580258F0FBFDBF00080240B0
:1007F00010B50279531E072B2DD8174C0168A14262
:100800001BD0154C1434A14217D0134C2834A142EC
:1008100013D0114C3C34A1420FD00F4C5034A142A4
:100820000BD00D4C6434A14207D00B4C7834A1425C
:1008300003D0094C8C34A14203D10849074C443100
:1008400002E00749064C443104EB8202C0E91B2157
:1008500001219940416710BD08540258FC580258C4
:10086000FC08024010B583694FF0C074826A0146EB
:10087000002053B1B3F5005F15D072B1012A0CD03E
:10088000022A0AD0032A09D104E01AB1012A06D0AB
:10089000022A03D1C96AC90100D5012010BDC96A65
:1008A000A142FAD010BD002AF7D0012AF2D0022AC4
:1008B000F3D0032AF3D010BD704772B6FEE70000F4
:1008C0002DE9F84F044601F04DF900903CB194F841
:1008D0003500022806D0802161650020E4E0012077
:1008E000BDE8F88FC74DC74EC64918352068303669
:1008F000DFF81483DFF814938842DFF814A3DFF8DD
:1009000014B32ED0A8422CD0B0422AD0404528D0D3
:10091000484526D0504524D0584522D0BD4A1832EB
:1009200090421ED0BC4A90421BD0BB4A1832904223
:1009300017D0B94A3032904213D0B74A4832904269
:100940000FD0B54A603290420BD0B34A7832904211
:1009500007D0B14A9032904203D0AF4AA8329042B9
:1009600009D1026822F01E0202602068426922F06A
:100970008002426103E0026822F00E0202602768F2
:100980008F4238464DD0A8424BD0B04249D0404566
:1009900047D0484545D0504543D0584541D09D4A61
:1009A000183290423DD09C4A90423AD09A4A18322E
:1009B000904236D0984A3032904232D0964A4832ED
:1009C00090422ED0944A603290422AD0924A783295
:1009D000904226D0904A9032904222D08E4AA8323D
:1009E00090421ED08D4A90421BD08C4A14329042C5
:1009F00017D08A4A2832904213D0884A3C3290421B
:100A00000FD0864A503290420BD0844A64329042D2
:100A100007D0824A7832904203D0804A8C32974283
:100A200004D1206E026822F4807202607549206849
:100A3000884228D0A84226D0B04224D0404522D0B7
:100A4000484520D050451ED058451CD0714918311A
:100A5000884218D07049884215D06F4918318842B1
:100A600011D06D49303188420DD06B4948318842F0
:100A700009D069496031884205D067497831884298
:100A800001D065499031016821F0010101600EE05B
:100A900001F068F80099401A052808D920226265FB
:100AA0000321002084F8351084F8340017E73868F3
:100AB000C007EDD1534A0121206890422ED0A842B0
:100AC0002CD0B0422AD0404528D0484526D05045A9
:100AD00024D0584522D04F4B183398421ED04E4B4D
:100AE00098421BD04C4B1833984217D04A4B3033A6
:100AF000984213D0484B483398420FD0464B60334E
:100B000098420BD0444B7833984207D0424B9033F5
:100B1000984203D0404BA833984208D194F85C70B7
:100B20003F23A06D07F01F07BB40836007E094F8E8
:100B30005C30A06D03F01F0301FA03F343602068EB
:100B400090424DD0A8424BD0B04249D0404547D00A
:100B5000484545D0504543D0584541D02D4A1832DC
:100B600090423DD02C4A90423AD02B4A18329042C3
:100B700036D0294A3032904232D0274A4832904209
:100B80002ED0254A603290422AD0234A78329042B1
:100B900026D0214A9032904222D01F4AA832904259
:100BA0001ED01E4A90421BD01C4A1432904217D0CD
:100BB0001A4A2832904213D0184A3C3290420FD041
:100BC000164A503290420BD0144A6432904207D0F9
:100BD000124A7832904203D0104A8C3290420BD1A4
:100BE000D4E919024260E06E30B1026822F48072EA
:100BF0000260D4E91C024260002084F8351084F8B9
:100C000034006DE6100002405800024070000240BF
:100C100088000240A000024010040240085402581C
:100C20002DE9F05F28B190F83510022904D0802119
:100C300041650120BDE8F09F904C904B0168183C45
:100C400018338E4ADFF83C92A1428D4CDFF838E22F
:100C50008E4FDFF83CB2DFF83CA28F4D8F4E31D083
:100C600091422FD099422DD0A1422BD0494529D075
:100C7000714527D0B94225D0DFF810C20CF1180C0D
:100C800061451FD0DFF808C2ACF1600C614519D096
:100C9000DFF8FCC1ACF1480C614513D0DFF8F0C1BE
:100CA000ACF1300C61450DD0DFF8E4C1ACF1180CAB
:100CB000614507D0594505D0514503D0A94201D01F
:100CC000B1422CD1DFF8B4C14FF0040880F8358070
:100CD000ACF1180C61451DD091421BD0994219D03E
:100CE000A14217D0494515D0714513D0B94211D052
:100CF0006648183081420DD065486038814209D07D
:100D000063484838814205D061483038814201D07B
:100D10005F481838086820F001000860ABE0D1F89F
:100D200000C02CF00E08DFF854C1C1F80080ACF10F
:100D3000180C0168614527D0914225D0994223D0F3
:100D4000A14221D049451FD071451DD0B9421BD0C9
:100D5000DFF838C10CF1180C614515D0DFF830C14F
:100D6000ACF1600C61450FD0DFF824C1ACF1480C48
:100D7000614509D0DFF818C1ACF1300C614503D0F2
:100D8000DFF80CC1ACF1180CD1F800C02CF0010C4C
:100D9000C1F800C0DFF8E4804FF0010C0168A8F151
:100DA0001808414546D0914244D0994242D0A142D0
:100DB00040D049453ED071453CD0B9423AD0334A43
:100DC0001832914236D0324A603A914232D0304A9B
:100DD000483A91422ED02E4A303A91422AD02C4A9B
:100DE000183A914226D0594524D0514522D0A942E3
:100DF00020D0B1421ED02A4A91421BD0284A143238
:100E0000914217D0264A2832914213D0244A3C32CC
:100E100091420FD0224A503291420BD0204A643284
:100E2000914207D01E4A7832914203D01C4A8C323C
:100E3000914218D1016E0A6822F480720A6090F81B
:100E40005C20816D02F01F020CFA02F24A60D0E9C8
:100E500019124A60C16E31B10A6822F480720A60C8
:100E6000D0E91C124A600022016D80F835C080F87C
:100E7000342001B188470020DCE600002800024051
:100E8000580002407000024088000240A00002406A
:100E90007004024088040240A0040240B8040240EA
:100EA000085402582DE9FC5F0446F74E0020DFF895
:100EB000D88300904FF41652F44808F11808A56D35
:100EC000DFF8C493DFF8C0A3016809F13009206896
:100ED0000AF1480AB1FBF2F1B04201912F68D5F84E
:100EE00000C0DFF8ACB335D04146884232D0484527
:100EF00030D050452ED058452CD0E5491831884285
:100F000028D0E3493031884224D0E1494831884231
:100F100020D0E04988421DD0DE491831884219D0DE
:100F2000DC493031884215D0DA494831884211D045
:100F3000DFF860E30EF1600E70450BD0D54A7832D1
:100F4000904207D0D34B9033984203D0D149A83177
:100F500088427DD194F85C20082102F01F0201FA3A
:100F600002F23A424AD0B04232D0404530D04845F1
:100F70002ED050452CD058452AD0C54A1832904220
:100F800026D0C34A3032904222D0C14A48329042E1
:100F90001ED0C04A90421BD0BE4A1832904217D091
:100FA000BC4A3032904213D0BA4A483290420FD0F5
:100FB000B84A603290420BD0B64A7832904207D09D
:100FC000B44A9032904203D0B24AA832904203D140
:100FD000026802F0040202E0026802F008026AB14C
:100FE000026822F00402026094F85C0000F01F0026
:100FF0008140A960606D40F00100606594F85C007C
:10100000012100F01F008140394240D02068B042E9
:1010100034D0404532D0484530D050452ED0584588
:101020002CD09B4A1832904228D0994A30329042B4
:1010300024D0974A4832904220D0964A90421DD000
:10104000944A1832904219D0924A3032904200E0CD
:10105000AFE113D08F4A483290420FD08D4A6032B0
:1010600090420BD08B4A7832904207D0894A903216
:10107000904203D0874AA83290427DD1406910F057
:10108000800F04D0A960606D40F00200606594F8A4
:101090005C00042100F01F00814039423ED02068EE
:1010A000B04232D0404530D048452ED050452CD0AB
:1010B00058452AD0764A1832904226D0744A3032A7
:1010C000904222D0724A483290421ED0714A9042D9
:1010D0001BD0704A1832904217D06E4A303290427C
:1010E00013D06C4A483290420FD06A4A6032904224
:1010F0000BD0684A7832904207D0664A90329042CC
:1011000003D0644AA83290424ED1006810F0020F1A
:1011100004D0A960606D40F00400606594F85C0044
:10112000102100F01F008140394258D02068B042A1
:1011300034D0404532D0484530D050452ED0584567
:101140002CD0534A1832904228D0514A3032904223
:1011500024D04F4A4832904220D04E4A90421DD06F
:101160004C4A1832904219D04A4A3032904215D037
:10117000484A4832904200E014E00FD0454A6032BD
:1011800090420BD0434A7832904207D0414A903285
:10119000904203D03F4AA832904207D1006800F045
:1011A000080006E0006872E70068B7E7006800F032
:1011B0000400A0B1A96020680168490304D5006853
:1011C000000308D5A16C07E00168C90503D40168D4
:1011D00021F008010160216C09B12046884794F88C
:1011E0005C00202100F01F008140394279D0206846
:1011F000B04232D0404530D048452ED050452CD05A
:1012000058452AD0224A1832904226D0204A3032FD
:10121000904222D01E4A483290421ED01D4A90422F
:101220001BD01C4A1832904217D01A4A30329042D2
:1012300013D0184A483290420FD0164A603290427A
:101240000BD0144A7832904207D0124A9032904222
:1012500003D0104AA832904203D1006800F0100079
:1012600002E0006800F00200B0B3A96094F8350015
:101270000428206801680FD049037ED50068000368
:101280002BD4616C2AE00000100002401000002402
:10129000700002401004024021F016010160206835
:1012A000416921F080014161206C08B9A06C20B136
:1012B0002068016821F00801016094F85C303F214A
:1012C000012003F01F0300229940A96084F8350033
:1012D00084F83420216D65E003E0E16B09B120461C
:1012E0008847606D00287DD0606DC00759D02068A8
:1012F000042184F83510B0422BD0404529D0484510
:1013000027D0504525D0584523D09D49884220D02C
:101310009B49183188421CD099493031884218D0F5
:101320009849884215D097491831884211D095497B
:10133000303188420DD093494831884209D09149D3
:101340006031884205D08F497831884201D08D497B
:101350009031016821F00101016020680099019A33
:10136000491C0091914202D80168C907F6D1006872
:10137000C00710D003200FE0FFE70168C905ACD417
:1013800003680121002223F01003036084F8351064
:1013900084F83420A1E7012084F83500002084F887
:1013A0003400E16C00291DD002B02046BDE8F05F9A
:1013B0000847754988421DD073491431884219D0B5
:1013C00071492831884215D06F493C31884211D08B
:1013D0006D49503188420DD06B496431884209D043
:1013E000694900E084E07831884203D066498C3155
:1013F00088427DD194F85C800427016808F01F08BA
:1014000007FA08F717EA0C0F009746D04F0744D5A4
:1014100000980F04686003D5C8033CD4A16CC1E7F1
:10142000880638D42068B0422DD0554960398842AA
:1014300029D0484527D0504525D0584523D050497C
:10144000884220D04E49183188421CD04C49303156
:10145000884218D04B49884215D04A4918318842F1
:1014600011D04849303188420DD046494831884230
:1014700009D0704507D0904205D0984203D0414929
:10148000A831884203D1016821F0080102E0016817
:1014900021F004010160216C84E7022707FA08F7B4
:1014A00017EA0C0F00974ED08F074CD500980F0409
:1014B000686003D5C80344D4616C73E7880640D4E0
:1014C0002068B0422FD02E49603988422BD0484541
:1014D00029D0504527D0584525D02949884222D0C7
:1014E0002749183188421ED025493031884200E012
:1014F00044E018D02349884215D022491831884247
:1015000011D02049303188420DD01E4948318842DF
:1015100009D0704507D0904205D0984203D01949B0
:10152000A831884203D1016821F0140102E001686A
:1015300021F00A010160012184F83510002084F8AF
:101540003400E16B2EE7082202FA08F212EA0C0FCF
:1015500014D0090712D5016821F00E01016094F83A
:101560005C100120002201F01F0100FA01F1696006
:10157000606584F8350084F8342012E7BDE8FC9FEC
:101580008800024010040240085402582DE9F05F20
:10159000044600F0E7FA002C07467DD0E24E022117
:1015A00020684FF00308DFF884934FF00005DFF860
:1015B00080A3B042DFF87CB334D0DB4A18329042CB
:1015C00030D048452ED050452CD058452AD0D94A45
:1015D0001832904226D0D74A3032904222D0D54A93
:1015E000483290421ED0D44A90421BD0D24A183280
:1015F000904217D0D04A3032904213D0CE4A48326F
:1016000090420FD0CC4A603290420BD0CA4A783216
:10161000904207D0C84A9032904203D0C64AA832BE
:1016200090427DD184F83510B04284F834502ED0E9
:10163000BD49183188422AD0484528D0504526D087
:10164000584524D0BB491831884220D0B94930319F
:1016500088421CD0B7494831884218D0B6498842E0
:1016600015D0B5491831884211D0B349303188427C
:101670000DD0B1494831884209D0AF496031884224
:1016800005D0AD497831884201D0AB49903101682D
:1016900021F00101016008E025E100BF00F062FADD
:1016A000C01B052801D920211AE120680068C00765
:1016B000F4D1D4E902032168103418438E4694E82B
:1016C0008410D4E9033809683A4310439B4A40EA3E
:1016D0000C00676918431140103C40EA0800042FD1
:1016E00040EA010003D1D4E90B12114308436168B9
:1016F000A1F12902052A0BD9163A032A08D9083A7A
:10170000012A05D9083A032A02D97439032901D8D4
:1017100040F48010CEF800002068676A406900E05D
:1017200020E0042F20F0070047EA00070DD1D4E99C
:101730000A01074349B12046FFF794F828B1402039
:101740006065012184F83510CDE0206847612046AE
:10175000FEF7A6FF94F85C203F2102F01F029140A3
:10176000816055E0764A90421BD0754B1433984205
:1017700017D0734B2833984213D0714B3C339842A7
:101780000FD06F4B503398420BD06D4B643398425F
:1017900007D06B4B7833984203D0694B8C33984217
:1017A0007ED184F8351084F83450664B0168A26805
:1017B00001EA030E402A74D0802A73D05FF0000241
:1017C000D4E90378D4E9053142EAD70242EAD808DD
:1017D0005B4AD4E9077C48EAD30848EAD10141EAE8
:1017E000D701524241EA1C11142341EA0E01016063
:1017F00020681044B0FBF3F08000E0652046FEF75F
:101800004FFF94F85C20012102F01F0291404160DB
:101810002068B04257D044491831884253D04845D7
:1018200051D050454FD058454DD04249183188428B
:1018300049D040493031884245D03E4948318842FC
:1018400041D03D4988423ED03B49183188423AD088
:1018500039493031884236D037494831884232D010
:101860003549603188422ED03349783188422AD0B8
:1018700031499031884226D02F49A831884222D060
:101880002F4988421FD02E49143188421BD02C4941
:101890002831884217D02A493C31884213D002E0CF
:1018A0001DE017E018E02649503188420BD024494A
:1018B0006431884207D022497831884203D02049D8
:1018C0008C31884229D12046FEF744FFA068802849
:1018D0000CD00CE0102273E74FF4804270E74021F7
:1018E000616584F835800120BDE8F09F6560216E58
:1018F00020790860D4E9190141606068401E07281A
:1019000008D82046FEF774FFE06E0560D4E91C019C
:10191000416002E0E566256765670120656584F83A
:1019200035000020E0E700001000024040000240C7
:101930005800024070000240100402403F8010FE38
:10194000085402580F00FEFF2DE9F84F03247A4D8A
:1019500000234FF001094FF0B04B4FF00F0AE4E0C5
:1019600009FA03F6324078D00F7907F00307012F08
:1019700001D0022F1AD187684FEA430ED1F80CC06C
:1019800004FA0EF827EA08070CFA0EFC4CEA070CDA
:10199000C0F808C0476891F804C0B743CCF3001CF6
:1019A0000CFA03FC4CEA070CC0F804C00E79F643AD
:1019B000B6070BD0C6684FEA43088F6804FA08FCE4
:1019C00026EA0C0607FA08F73743C7600E7906F0D7
:1019D0000306022E12D1DE080F694FEA437C00EBAA
:1019E0008606B646366A4FEADC6C0AFA0CF807FA45
:1019F0000CF726EA08063743CEF820700F79066800
:101A00004FEA430807F0030704FA08FC07FA08F74F
:101A100026EA0C06374307604E6816F4403F1CD098
:101A2000464E376847F00207376036689F0706F072
:101A30000206009623F0030606F1B046B6463F0FB5
:101A4000D6F80864DFF8F8800AFA07FC404526EA71
:101A50000C0603D14FF0000C3AE065E0DFF8E4C07B
:101A6000604502D14FF0010C32E0DFF8DCC0604588
:101A700002D14FF0020C2BE0DFF8D0C0604502D15C
:101A80004FF0030C24E0DFF8C8C0604502D14FF0EE
:101A9000040C1DE0DFF8BCC0604502D14FF0050C1E
:101AA00016E0DFF8B4C0604502D14FF0060C0FE03D
:101AB000DFF8A8C0604502D14FF0070C08E0DFF85E
:101AC000A0C0604502D14FF0090C01E04FF00A0CB4
:101AD0000CFA07FC4CEA060CCEF808C44F68DBF899
:101AE0000060FF0226EA020600D516435F46CBF8E7
:101AF0000060D1F804C0DBF804605FEA8C2C26EAB1
:101B0000020600D516437E606E684F6826EA02061C
:101B1000BF0300D516436E602E684F6826EA0206A2
:101B2000FF0300D516432E605B1C0A6832FA03F6E9
:101B30007FF416AFBDE8F88F80000058F4440258D7
:101B4000000002580004025800080258000C025815
:101B5000001002580014025800180258001C0258C5
:101B600000240258014880687047000004000024E7
:101B700002488168027811448160704704000024A3
:101B8000032010B500F0D8F801F07AF80F4A104998
:101B900014681368C4F3032203F00F038A5CC95C62
:101BA00002F01F0201F01F01D0400A4A20FA01F1A1
:101BB0001160094908600F2000F010F808B10120F9
:101BC00010BD00F079F8002010BD00001844025844
:101BD000945B0008140000241000002470B50D4D23
:101BE00004462878A0B14FF47A71B1FBF0F00A49AD
:101BF0000968B1FBF0F001F072FB48B9102C07D274
:101C000000222146501E00F077F800206C6070BD65
:101C1000012070BD0400002410000024154BF0B515
:101C2000083B427813491A600B680A1F23F001032E
:101C30000B6043681360057BC67A827A437B2D076D
:101C4000847B45EA0665C77B90F809C0067A90F860
:101C500000E045EAC24040EA834040EA444040EAAE
:101C6000074040EA0C2040EA460040EA0E000860C7
:101C7000F0BD0000A0ED00E0BFF35F8F044800213D
:101C80000368034A23F480330360703211607047A5
:101C900024ED00E0074A40F0010006497032106070
:101CA000086840F480300860BFF34F8FBFF36F8F38
:101CB0007047000024ED00E0074882B0016841F061
:101CC00002010160006800220F2100F00200009074
:101CD000901E02B000F010B8F4440258002809DB4E
:101CE000410900F01F028900012001F1E02190402C
:101CF000C1F80001704700000E4BF0B41B680D46A0
:101D0000C3F30223C3F10706042E00D90426191DCC
:101D1000072901D2002300E0DB1E012404FA06F1AA
:101D20009C40491E2940641E994014402143F0BC48
:101D300003F033B90CED00E0064900F0070210B5DE
:101D40004FF6FF040868044B204040EA0220184385
:101D5000086010BD0CED00E00000FA05134970B5F5
:101D60000A68D243520705D5096801F0070181428C
:101D700013D118E00A6822F0070202430A60FFF755
:101D8000F1FE0A4D4FF47A760446083D07E000BFA5
:101D9000FFF7E8FE001BB04201D9012070BD2868A2
:101DA000C0438004F4D4002070BD00000C480258E9
:101DB00010B500F01FFF05490968054AC1F302117B
:101DC000515C01F01F01C84010BD000020440258C2
:101DD000945B0008494930B5484C0B1D0A6814341F
:101DE00009681D68246802F00303C5F30012C1F3FB
:101DF0000531C4F3CC04002914FB02F200EE102AD2
:101E0000F8EE400A75D03F4A9FED3D1AB7EE000A42
:101E10006BB1DFED3D1A012B01D0022B64D002EE35
:101E2000101A1168F8EE422A81EEA22A21E0334C02
:101E3000283C23689B0612D5344B246801EE901A87
:101E40001168C4F3C104F8EE612AE34001EE903A50
:101E5000C1F30801F8EE611A81EEA22A0BE001EE4F
:101E6000901ADFED2B2A00BFF8EE611A116882EE9E
:101E7000A12AC1F3080101EE901A1168F8EE611A67
:101E800040EE811A71EE800A62EE200AC1F346210B
:101E900001EE101AB8EE411A31EE001AC0EE811AA6
:101EA000BCEEE11A80ED001A1168C1F3064101EEA3
:101EB000101AB8EE411A31EE001AC0EE811ABCEECB
:101EC000E11A80ED011A1168C1F3066101EE101AE2
:101ED000B8EE411A31EE000A80EE801ABCEEC10A5B
:101EE00080ED020A30BD04E001EE901ADFED092A10
:101EF000BAE70021016041608160F3E7284402589D
:101F000000000039384402580024744A0090D0037D
:101F10000024744C20BCBE4B494930B5484C0B1DC5
:101F20000A681C3409681D68246802F00303C5F3BD
:101F30000022C1F30551C4F3CC04002914FB02F2C2
:101F400000EE102AF8EE400A75D03F4A9FED3D1A88
:101F5000B7EE000A6BB1DFED3D1A012B01D0022B69
:101F600064D002EE101A1168F8EE422A81EEA22A1D
:101F700021E0334C283C23689B0612D5344B24685F
:101F800001EE901A1168C4F3C104F8EE612AE3402F
:101F900001EE903AC1F30801F8EE611A81EEA22A2F
:101FA0000BE001EE901ADFED2B2A00BFF8EE611A6C
:101FB000116882EEA12AC1F3080101EE901A11689E
:101FC000F8EE611A40EE811A71EE800A62EE200A84
:101FD000C1F3462101EE101AB8EE411A31EE001A93
:101FE000C0EE811ABCEEE11A80ED001A1168C1F34F
:101FF000064101EE101AB8EE411A31EE001AC0EE99
:10200000811ABCEEE11A80ED011A1168C1F3066174
:1020100001EE101AB8EE411A31EE000A80EE801A75
:10202000BCEEC10A80ED020A30BD04E001EE901A58
:10203000DFED092ABAE70021016041608160F3E722
:102040002844025800000039404402580024744AD1
:102050000090D0030024744C20BCBE4B2DE9FE4FF1
:102060000546DFF800A450F8081B0024FD4FC943C3
:10207000019005F1280026460AF1240A0090080183
:102080001DD4686E50B1B0F5801F0CD0B0F5001FA4
:102090000ED0B0F5401F1ED001240FE0386840F488
:1020A0000030386017E00198022101F0D9FF03E009
:1020B0000098022102F064F804000CD0264628881B
:1020C000C043C00523D4A86D05281ED2DFE800F068
:1020D0000C11161B1B006A6EDAF8001021F4401177
:1020E0001143CAF80010EAE7386840F4003038605D
:1020F00009E00198002101F0B3FF03E000980021FE
:1021000002F03EF80446C4B100E0012426462888C7
:10211000DFF85083C04308F12C0840052FD4D5F8D0
:10212000A400B0F5C00F28D010DCB8B1B0F5001F86
:1021300019D0B0F5800F0FD11AE0AA6DDAF80010AF
:1021400021F007011143CAF80010E0E7B0F5000FD5
:1021500013D0B0F5200F10D001240FE0386840F400
:102160000030386009E00198002101F079FF03E0B8
:102170000098002102F004F8044694B1264628880D
:10218000C043000530D4D5F8A800B0F1407F29D075
:1021900011DCC0B1B0F1807F1AD0B0F1007F10D156
:1021A0001BE0D5F8A420D8F8001021F460011143F9
:1021B000C8F80010E3E7B0F1806F13D0B0F1A06F62
:1021C00010D001240FE0386840F40030386009E096
:1021D0000198002101F044FF03E00098002101F084
:1021E000CFFF044694B126462868DFF878B2C04392
:1021F0000BF1200B80011FD4E86CD8B110280FD050
:10220000202812D0302815D0012414E0D5F8A820B9
:10221000D8F8001021F0E0611143C8F80010E3E79E
:10222000386840F40030386004E00198022101F081
:1022300017FF044674B126462888C043C0042BD437
:10224000E86DB0F5005F20D00DDCA0B1B0F5805F87
:102250000FD115E0EA6CDBF8001021F030011143DA
:10226000CBF80010E8E7B0F5405F13D0B0F5804F31
:1022700010D001240FE0386840F40030386009E0E5
:102280000198002101F0ECFE03E00098002101F02C
:1022900077FF04468CB126462888C043800429D4A1
:1022A000286EB0F5403F23D010DC08B3B0F5803F76
:1022B00014D0B0F5003F0FD115E0EA6DDAF8001048
:1022C00021F4E0411143CAF80010E5E7B0F5802F92
:1022D0000ED0B0F5A02F0BD001240AE00198012107
:1022E00001F0BEFE03E00098012101F049FF044621
:1022F00094B126462888C04340042AD4D5F8AC00BF
:10230000B0F1405F23D010DC08B3B0F1805F14D08F
:10231000B0F1005F0FD115E02A6EDAF8001021F459
:10232000E0211143CAF80010E4E7B0F1804F0ED06D
:10233000B0F1A04F0BD001240AE00198012101F077
:102340008FFE03E00098012101F01AFF044674B1EA
:1023500026462888C04300041FD4E86ED8B1B0F1E7
:10236000805F0ED0B0F1005F10D0012414E0D5F8EA
:10237000AC20D8F8001021F0E0411143C8F800105B
:10238000E7E7386840F40030386004E00198012144
:1023900001F066FE044674B126462868C043C001B9
:1023A0001ED4A86CD0B101280ED0022811D0032869
:1023B00014D0012413E0EA6EDAF8001021F0405145
:1023C0001143CAF80010E8E7386840F4003038607C
:1023D00004E00198022101F043FE04466CB1264658
:1023E0002868C043400255D41F48016841F48071F9
:1023F0000160FFF7B7FB81460EE0AA6CDBF8001026
:1024000021F003011143CBF80010E9E7FFF7AAFB25
:10241000A0EB090064283BD813480068C005F5D537
:10242000BCBBDFF84090B5F8B01009F14409D9F809
:10243000000001F4407100F44070884211D0D9F8D6
:102440000010D9F8002021F4407142F48032C9F81C
:102450000020D9F8002022F48032C9F80020C9F801
:10246000001003E02C44025800480258D5F8B00090
:10247000B0F5807F19D1FFF775FB029011E000BF26
:10248000FFF770FB0299411A41F28830814208D966
:10249000032426462878DFF81494C043C00721D0CF
:1024A0003CE0D9F800008007EAD5D5F8B010C1F3B8
:1024B00001200328FE480DD0016821F47C51016001
:1024C000B5F8B020D9F80010C2F30B021143C9F8D7
:1024D0000010DFE7F74A036802EA111223F47C5187
:1024E0001143ECE7A86F182816D005DCA0B1082826
:1024F00008D0102804D10AE020280DD028280BD0BD
:1025000001240AE00198012101F0AAFD03E00098EE
:10251000012101F035FE044664B126462878C04307
:1025200080071ED4686F062819D2DFE800F0160C69
:1025300011161616AA6FD9F8001021F038011143B0
:10254000C9F80010EAE70198012101F089FD03E0D4
:102550000098012101F014FE04467CB100E0012442
:1025600026462878C04340071FD4D5F89000062897
:1025700019D2DFE800F0160C111616166A6FD9F89A
:10258000001021F007011143C9F80010E9E7019894
:10259000012101F065FD03E00098012101F0F0FD4B
:1025A0000446A4B100E0012426462878C0438006F2
:1025B0002BD4D5F88C00B0F1405F24D011DC10B3DF
:1025C000B0F1805F15D0B0F1005F10D116E0D5F802
:1025D0009020D8F8001021F007011143C8F800102E
:1025E000E3E7B0F1804F0ED0B0F1A04F0BD0012443
:1025F0000AE00198002101F033FD03E00098022178
:1026000001F0BEFD044694B126462878C04340063A
:102610002BD4D5F89800B0F5406F24D011DC10B35E
:10262000B0F5806F15D0B0F5006F10D116E0D5F879
:102630008C20D9F8001021F0E0411143C9F80010B6
:10264000E3E7B0F5805F0ED0B0F5A05F0BD00124BA
:102650000AE00198002101F003FD03E00098022147
:1026600001F08EFD044694B126462878C04300064A
:102670002BD4D5F89C00B0F5C04F24D011DC10B39A
:10268000B0F5005F15D0B0F5804F10D116E0D5F849
:102690009820D8F8001021F4E0511143C8F8001038
:1026A000E3E7B0F5004F0ED0B0F5204F0BD001247A
:1026B0000AE00198002101F0D3FC03E00098022118
:1026C00001F05EFD044654B126462878C043000759
:1026D0001ED4D5F88000B0F5805F0AD00FE0D5F8A1
:1026E0009C20D8F8001021F460411143C8F8001074
:1026F000EBE70098022101F043FD00B10126D5F877
:102700008020D9F8001021F440511143C9F800107D
:102710002878C043C00613D4D5F89400B0F5807F64
:1027200005D10098022101F02BFD00B10126D5F85A
:102730009420D8F8001021F440711143C8F800101B
:102740002868C043000316D4D5F8A00038B1B0F50E
:10275000803F09D0B0F5003F0BD001240AE001987A
:10276000002101F07DFC03E00098022101F008FD4A
:1027700004468CB126462868C043400322D4D5F8CD
:102780008400B0F5801F11D0B0F5001F13D0B0F554
:10279000401F15D0012414E0D5F8A020D8F800106F
:1027A00021F440311143C8F80010E4E7386840F4E0
:1027B0000030386004E00098012101F0E1FC04469B
:1027C0005CB126462868C043C0031CD4286D70B194
:1027D000B0F5803F10D0012414E0D5F88420D9F85A
:1027E000001021F440111143C9F80010EAE73868DD
:1027F00040F40030386004E00198022101F030FC20
:102800000446DCB126462868C043800005D4009801
:10281000022101F0B5FC00B101262868C043800305
:102820001BD4E86FB8B1B0F5807F10D0B0F5007F51
:1028300011D0B0F5407F0ED001240DE02A6DDBF8F9
:10284000001021F480311143CBF80010DBE7386829
:1028500040F4003038607CB326462868C043C0028C
:1028600007D42A6FDAF8001021F000411143CAF8AA
:1028700000102868C043800207D4AA6EDAF800105E
:1028800021F080711143CAF800102868C04340004D
:1028900009D40748016821F4004101600168D5F8B6
:1028A000B420114301602868C04306E05444025834
:1028B00010440258CFFFFF001DE007D46A6DDBF81B
:1028C000001021F040511143CBF800102868C0439C
:1028D000000208D4D5F88820D9F8001021F440016E
:1028E0001143C9F8001028790024C04300F001000A
:1028F000204309D00EE0EA6FD9F8001021F44071AE
:102900001143C9F80010A8E70198002101F0A8FBC5
:1029100000B106462879C04300F00200204305D1EB
:102920000198012101F09CFB00B106462879C043C3
:1029300000F00400204305D10198022101F090FB32
:1029400000B106462879C04300F00800204305D1B5
:102950000098002101F014FC00B106462879C0431C
:1029600000F01000204305D10098012101F008FC7F
:1029700000B106462879C04300F02000044304D18A
:102980000098022101F0FCFB00B916B10120BDE85E
:10299000FE8F0020FBE700002DE9F05F04000F46EA
:1029A0007ED0DFF83882D8F8000000F00F00B8427F
:1029B0000CD2D8F8001021F00F013943C8F80010EC
:1029C000D8F8000000F00F00B84269D12078844D9B
:1029D00040070AD52069296801F07001884204D9AE
:1029E000296821F070010143296020787C4E361D52
:1029F00000070AD56069316801F07001884204D986
:102A0000316821F07001014331602078C0060AD599
:102A1000A069316801F4E061884204D9316821F489
:102A2000E061014331602078DFF8B4B180060BF13A
:102A3000080B0CD5E1695846DBF8002002F0700263
:102A4000914204D9026822F070020A4302602078A1
:102A500080070AD5E068296801F00F01884204D98F
:102A6000296821F00F01014329602078C0073ED07A
:102A70005B49A2682868183920F470601043286008
:102A80006068022818D0032819D00968012819D0D5
:102A9000490700294ADADFF848A1AAF1080A00E04C
:102AA00044E0DAF8002022F007020243CAF80020CE
:102AB000FFF758F8814612E009688903E9E70968D9
:102AC0008901E6E7C905E4E7FFF74CF8A0EB090147
:102AD00041F28830814202D90320BDE8F09F61684D
:102AE000DAF8000000F03800B0EBC10FECD120782C
:102AF00080070AD5E068296801F00F01884204D2F6
:102B0000296821F00F0101432960D8F800104046E0
:102B100001F00F01B9420BD9016821F00F013943CF
:102B20000160006800F00F00B84201D00120D4E736
:102B3000207840070AD52069296801F07001884291
:102B400004D2296821F07001014329602078000730
:102B50000AD56069316801F07001884204D2316899
:102B600021F07001014331602078C0060AD5A069C8
:102B7000316801F4E061884204D2316821F4E061F7
:102B800001433160207880060CD5E1695846DBF8B6
:102B9000002002F07002914204D2026822F070021A
:102BA0000A43026000F06CF80E492A682B68C2F3F1
:102BB000032203F00F038A5CC95C02F01F0201F0DC
:102BC0001F01D040084A20FA01F11160074908604E
:102BD00007480068BDE8F05FFFF700B8002000522A
:102BE00018440258945B00081400002410000024CC
:102BF0000800002430B500F043F80B4A0B490C4B99
:102C000015681468C5F3032204F00F048A5C095D9B
:102C100002F01F0201F01F01D040064A20FA01F124
:102C200019601060084630BD18440258945B0008D3
:102C3000140000241000002400B5FFF7DBFF054955
:102C40000968054AC1F30211515C01F01F01C84037
:102C500000BD00001C440258945B000800B5FFF75B
:102C6000C9FF05490968054AC1F30221515C01F019
:102C70001F01C84000BD00001C440258945B0008BE
:102C8000454970B545480968434B103B11F038027F
:102C900008D00111082A03D0102A0BD0182A0BD013
:102CA000084670BD19688906FBD51968C1F3C101D2
:102CB000C84070BD3A4870BD3749374D18310C1DBA
:102CC00024350A68096826682D6802F0030406F0B6
:102CD0000102C1F30511C5F3CC0515FB02F200EEAC
:102CE000102AB8EE400AE9B32F4ADFED2E0AB7EEFC
:102CF000001A6CB1DFED2D1A012C01D0022C43D04B
:102D000002EE101A1068F8EE422A81EEA22A1EE0A6
:102D10001C68A40611D51B6801EE901A1168C3F354
:102D2000C103F8EE612AD84001EE900AC1F3080011
:102D3000F8EE611A81EEA22A0BE001EE901ADFEDA7
:102D40001C2A00BFF8EE611A106882EEA12AC0F3B7
:102D5000080001EE900AF8EE611A40EE201A31EEFA
:102D6000810A00E015E022EE000A1068C0F3462058
:102D7000401C00EE900AF8EE600A80EE201ABCEECD
:102D8000C10A10EE100A70BD01EE901ADFED092A9B
:102D9000D8E7002070BD0000104402580090D00316
:102DA00040787D0100000039304402580024744A04
:102DB0000024744C20BCBE4B2DE9F05F04007DD094
:102DC000FF4F2078FE4D1837DFF8F483103DC00721
:102DD00048D0D8F80000396800F03800102815D025
:102DE000182803D101F0030002280FD06068B0F565
:102DF000803F12D010B1B0F5A02F18D0286820F471
:102E000080302860286820F4802009E0286880034A
:102E100028D560680028D2D024E0286840F48030AB
:102E20002860606888B1FEF79DFE064609E02868C4
:102E300040F480202860F0E7FEF794FE801B6428B1
:102E40007ED828688003F7D50CE0FEF78BFE064697
:102E500005E000BFFEF786FE801B6428F0D82868D6
:102E60008003F7D42078800756D5D8F80000DFF823
:102E70005093396810F03800A9F10C090ED01828C9
:102E800001D188070AD0E068A8B3296821F01901A8
:102E900001432960FEF766FE064628E028684007E1
:102EA00002D5E06800288AD0E168286820F019007F
:102EB00008432860FEF756FE064606E0D2E000BF53
:102EC000FEF750FE801B0228BAD828684007F7D5C5
:102ED000217CD9F8002022F0FE4242EA0161C9F8C3
:102EE000001019E0FEF73EFE801B0228A8D82868D3
:102EF0004007F7D5ECE7FFE7286820F001002860DD
:102F0000FEF730FE064604E0FEF72CFE801B02288A
:102F100096D828684007F7D42078C00646D5D8F858
:102F20000000DFF89C92396800F03800A9F104092C
:102F3000082812D0182805D101F00300012800E06C
:102F4000CEE00AD0E0690028286820D040F0800058
:102F50002860FEF707FE064615E02868C00502D582
:102F6000E06980287ED194F82010D9F8002022F062
:102F70007C5242EA0161C9F8001017E0FEF7F2FD49
:102F8000801B0228A0D82868C005F7D5EBE720F001
:102F900080002860FEF7E6FD064604E0FEF7E2FD4D
:102FA000801B022890D82868C005F7D42078000735
:102FB00029D583486169643000298146016811D0B0
:102FC00041F001010160FEF7CDFD064605E000BFBE
:102FD000FEF7C8FD801B022888D8D9F800008007BA
:102FE000F6D510E021F001010160FEF7BBFD0646B9
:102FF00005E000BFFEF7B6FD801B022870D8D9F8A7
:1030000000008007F6D42078800623D5A069002828
:10301000286810D040F480502860FEF7A3FD0646D3
:1030200005E000BFFEF79EFD801B022858D82868E7
:103030008004F7D50EE020F480502860FEF792FD62
:10304000064604E0FEF78EFD801B022848D828685B
:103050008004F7D42078400751D5DFF86891D9F87B
:10306000001000E015E141F48071C9F80010FEF78E
:1030700079FD064605E000BFFEF774FD801B64285D
:103080002ED8D9F80000C005F6D54D4EA0686036A0
:1030900001280AD008B1052813D0306820F00100BB
:1030A0003060306820F0040002E0306840F0010039
:1030B0003060A06841F2883A98B1FEF753FD81462E
:1030C0000AE0306840F004003060EEE7FEF74AFDA9
:1030D000A0EB0901514503D830688007F6D50EE012
:1030E00072E0FEF73FFD814606E000BFFEF73AFDC5
:1030F000A0EB0901514567D830688007F6D4606AB3
:1031000000287CD0DFF8B8A0D8F800100AF1200A17
:103110004FF6F87B0AF10408C1F3C2010329AAF1B2
:1031200004096DD00228286820F08070286003D040
:10313000FEF718FD044681E0FEF714FD064604E0A4
:10314000FEF710FD801B022875D828688001F7D48F
:10315000E26A40F2F331386854F8283F884340EA85
:10316000021018433860217B4FF4FE0C22894FF087
:10317000FE47208A4902267D521E401EA1F500719D
:1031800089B2C2F308021143761E0CEA00400143E3
:10319000484607EA06621143CAF80010D9F8001041
:1031A00021F00101C9F80010D8F80030266A23EA9E
:1031B0000B0343EAC601C8F80010D9F8001004E078
:1031C000104402580048025835E0A26921F00C0171
:1031D0001143C9F800100168E26921F002011143AE
:1031E0000160016841F480310160016841F40031FF
:1031F0000160016841F480210160016801E06CE038
:1032000020E041F001010160286840F080702860F2
:10321000FEF7A8FC044604E0FEF7A4FC001B02280D
:1032200009D828688001F7D557E000BFFEF79AFC5F
:10323000001B022802D90320BDE8F09F2868800106
:10324000F4D44AE039680128DAF8000021D0A26AF3
:1032500001F0030393421CD1E26AC1F305118A42D3
:1032600017D1216BC0F30802491E8A4211D1616B4C
:10327000C0F34622491E91420BD1A16BC0F3064216
:10328000491E914205D1E16BC0F30660491E81429F
:1032900001D00120D0E7A16C4646D8F80000C0F369
:1032A000CC00814219D0D9F800004D4620F0010031
:1032B000C9F80000FEF756FC4FEA0007FEF752FC83
:1032C000B842FBD0A26C306820EA0B0040EAC20092
:1032D0003060286840F0010028600020ACE7401E04
:1032E000B0F1807F10B501D3012010BD4FF0E02474
:1032F00060610F21601701F050FE0020A0610721DE
:10330000216110BDF0B590F83C20012A43D0012284
:1033100080F83C20D1E90242204ECD6922F440726F
:103320002243D1E9004322F480621A4322F400626E
:103330002243D1E9043422F480521A430B6B22F465
:10334000005222430C8B22F480421A43036822F479
:10335000702242EA0442002422F08052B34242EA40
:10336000050202D00E4DAB4210D10F8D22F4700C2D
:10337000D1E90862CD6A4CEA075121F080713143EE
:1033800021F00071114321F000522A435A6480F861
:103390003C400020F0BD0220F0BD000000000140D4
:1033A00000040140F0B590F83C20012A41D0224EA3
:1033B000012480F83C40022280F83D2002681F4D25
:1033C0005368B242D2F808C001D0AA4203D14F6874
:1033D00023F470033B430F6823F070031F435760CF
:1033E0000268B24219D0B2F1804F16D0144B9A4203
:1033F00013D0144B9A4210D0134B9A420DD0AA42CC
:103400000BD0124B9A4208D0114B9A4205D0114B67
:103410009A4202D0104B9A4204D189682CF0800362
:1034200019439160002180F83D4080F83C10084627
:10343000F0BD0220F0BD000000000140000401408A
:103440000004004000080040000C0040001800404C
:103450000040014000E0004000E400402DE9F0475A
:10346000054690F83C0000260C46012810D00120AB
:1034700085F83C0072B1042A1CD0082A2CD00C2AF2
:1034800052D00126002085F83C003046BDE8F08788
:103490000220FBE7E3682868D4E9001201F0C8F9CC
:1034A0002868816921F00C01816128688169A2681E
:1034B00011430FE0E3682868D4E9001201F002FA32
:1034C0002868816921F44061816128688169A26866
:1034D00041EA02218161D5E728684FF4206CD4E9E4
:1034E0000032217B076AD0F820800CEA0323090709
:1034F00027F4206728F4807CC0F820C0D0F81CC0D6
:103500003B432CF00307174327F0F00242EA116116
:10351000C16103622868C16921F00C01C16128689A
:10352000A268C169114328E0D4E9002328684FF458
:103530002048E1684FF6FF7C9946036A076A08EA6B
:10354000023223F420431A430CEA013127F4805756
:103550000762C36923F4407747EA092323F47043E1
:103560001943C16102622868C16921F44061C161E7
:103570002868A168C26942EA0121C16182E710B5E9
:10358000040003D094F83D0010B107E0012010BD05
:10359000002084F83C00204600F022F8022084F845
:1035A0003D002068211D00F037FF012084F848000D
:1035B00084F83E0084F83F0084F8400084F841001D
:1035C00084F8420084F8430084F8440084F84500FD
:1035D00084F8460084F8470084F83D00002010BDC0
:1035E00010B586B0044614216846FCF7E8FF206851
:1035F000B0F1804F1FD11148016841F00101016015
:10360000006800F0010005900C480838016841F09E
:103610000101016000680123032100F00100059011
:103620000020009102226946CDE90120CDE9030383
:103630000348FEF789F906B010BD0000E8440258BF
:103640000000025810B586B0044614216846FCF705
:10365000B6FF0E492068884216D10D48016841F036
:103660001001016000680123022200F010000590A3
:1036700000204FF4206100916946CDE90120CDE999
:1036800003030448FEF760F906B010BD00000140D6
:10369000E04402580010025870B5044690F83C000F
:1036A00000260D4601280BD0012084F83C000C2A8E
:1036B0004AD007DC82B1042A20D0082A06D131E0A2
:1036C000022070BD102A53D0142A63D00126002096
:1036D00084F83C00304670BD206800F00FFF206881
:1036E000816941F0080181612068816921F004014C
:1036F000816120682A698169114311E0206800F026
:103700004FFF2068816941F400618161206881690F
:1037100021F48061816120682969826942EA01217E
:103720008161D4E7206800F087FF2068C16941F01B
:103730000801C1612068C16921F00401C1612068EC
:103740002A69C169114311E0206800F0C1FF2068B7
:10375000C16941F40061C1612068C16921F48061DF
:10376000C16120682969C26942EA0121C161AEE7ED
:10377000206800F0E9FF2068416D41F008014165D3
:103780002068416D21F00401416520682A69416D7E
:10379000114311E0206801F011F82068416D41F4F7
:1037A000006141652068416D21F4806141652068B8
:1037B0002969426D42EA0121416588E710B504009C
:1037C00003D094F83D0010B107E0012010BD0020A7
:1037D00084F83C00204600F023F8022084F83D00E5
:1037E0002068211D00F018FE012084F8480084F8AC
:1037F0003E0084F83F0084F8400084F8410084F8DB
:10380000420084F8430084F8440084F8450084F8BA
:10381000460084F8470084F83D00002010BD0000F9
:1038200008B500680649884208D10648016841F099
:1038300001010160006800F00100009008BD000077
:1038400000000140F044025830B590F8841001297E
:1038500018D0012280F884202421C0F8881000228A
:10386000202401680B680D6823F0005325F0010542
:103870000D60426601680B60C0F8884080F88420C3
:10388000104630BD022030BD7047704770B5044609
:1038900090F8840001281DD0012284F8842024207F
:1038A000C4F8880020680568026822F001020260FE
:1038B0002068826822F060620A438260204601F03C
:1038C0001DF82268202100201560C4F8881084F8B3
:1038D000840070BD022070BD70B5044690F884006D
:1038E00001281DD0012284F884202420C4F88800F7
:1038F00020680568026822F0010202602068826880
:1039000022F060420A438260204600F0F7FF2268FE
:10391000202100201560C4F8881084F8840070BD50
:10392000022070BD70477047704700002DE9F041DC
:1039300007680025044640F60F030226F869396837
:10394000BA6818420AD183067ED501F0200302F03E
:10395000805C53EA0C0377D0616F74E1CF4BDFF8E2
:1039600040C3134001EA0C0C53EA0C0C6CD05FEA24
:10397000C07C0CD05FEAC15C09D54FF0010CC7F8E0
:1039800020C0D4F8907047F00107C4F89070870702
:1039900009D5D70707D027683E62D4F8906046F073
:1039A0000406C4F8906046070AD5D60708D02768F1
:1039B00004263E62D4F8906046F00206C4F8906097
:1039C00006070CD501F020061E4308D02668082300
:1039D0003362D4F8903043F00803C4F89030030504
:1039E0000BD54B0109D526684FF400633362D4F838
:1039F000903043F02003C4F89030D4F89030002B7E
:103A00003DD0800609D501F0200002F08051084326
:103A100003D0616F09B1204688472168D4F890002F
:103A20008968490602D410F0280F2AD0204601F0F8
:103A30004BF82068806840061ED52068083050E8A2
:103A4000001F21F0400100E021E040E80012002AC0
:103A5000F3D1D4F8800078B192490165D4F88000A0
:103A6000FDF7DEF800280AD0D4F88000016D00E0F0
:103A70002046BDE8F04108472046FFF755FFBDE866
:103A8000F0812046FFF750FFC4F89050F7E7D4F8D4
:103A90006CC02023BCF1010F7ED15FEAC06C7BD5E6
:103AA0005FEAC16C78D510203862206880684006D3
:103AB00073D5D4F880107C4A0868904234D07A4A92
:103AC0001832904230D0784A303290422CD0764A28
:103AD0004832904228D0744A6032904224D0724AD0
:103AE0007832904220D0704A903290421CD06E4A78
:103AF000A832904218D06D4A904215D06B4A1832C5
:103B0000904211D0694A303290420DD0674A483213
:103B1000904209D0654A6032904205D0634A7832BB
:103B2000904201D0614A903240680004000CA6D057
:103B3000B4F85C208242A2D9A4F85E00C869B0F54E
:103B4000807F2FD0216851E8000F20F4807041E879
:103B50000002002AF6D12068083050E8001F21F04A
:103B6000010140E80012002AF5D12068083050E831
:103B7000001F21F0400140E80012002AF5D1C4F8EE
:103B80008C30E566216851E8000F20F0100041E814
:103B90000002002AF6D101E040E00BE0D4F88000FA
:103BA000FCF78EFE2667B4F85C00B4F85E10401A8D
:103BB00081B22FE0B4F85C00B4F85E10B4F85E2077
:103BC000401A81B2002AB2D00029B0D0226852E84F
:103BD000000F20F4907042E80007002FF6D1344F18
:103BE000206800F1080050E8002F02EA070240E8D0
:103BF000002CBCF1000FF3D1C4F88C30E56665678A
:103C0000206850E8002F22F0100240E80023002B2B
:103C1000F6D126672046FFF737FE30E7C60209D502
:103C2000560207D54FF4801038622046BDE8F041B7
:103C3000FFF779BE06060AD501F0800602F40002FD
:103C4000164304D0A16F00297FF412AF17E7420694
:103C500011D54A060FD52046026852E8001F21F010
:103C6000400142E80014002CF6D1C0F88830856786
:103C700000F0D4F803E7020206D54A0004D5204636
:103C8000BDE8F041FFF74EBEC001C6D50029C4DA39
:103C90002046BDE8F041FFF7F8BD0000010000102C
:103CA00020010004B34A0008100002401004024042
:103CB000FEFFFFEF10B5040003D0D4F8880010B168
:103CC00007E0012010BD002084F88400204600F0A9
:103CD00027F82420C4F888002068016821F0010139
:103CE0000160A06A10B1204600F02AFE204600F0D4
:103CF00015FF0128E6D02068416821F49041416019
:103D00002068816821F02A0181602068016841F003
:103D1000010101602046BDE8104000F075BE0000C2
:103D20002DE9F041B4B0074614212EA8FCF747FC5A
:103D3000B8216846FCF743FC33493868884260D1B3
:103D400000201E9001210446CDE900106846FEF7D0
:103D500085F908B1FCF7B1FD2C48016841F010016C
:103D60000160006800F010003390284810380168A6
:103D700041F00101016000682EAD022100F0010058
:103D800033904FF4C060072385E8130003222048D6
:103D9000CDE931232EA9FDF7D7FD1E4E2A221E495B
:103DA00040234FF48068304686E81E017461B46198
:103DB000F46134627462FDF7E9FB08B1FCF77DFD44
:103DC000144D292214497835FE671831B763284607
:103DD00085E81600C5E903486C61AC61EC612C62B2
:103DE0006C62FDF7D3FB08B1FCF767FDC7F88050A4
:103DF00000220521AF632520FDF77EFF2520FDF77A
:103E00006DFF34B0BDE8F08100100140F04402586D
:103E10000000025800040024100002407047FEE732
:103E20000D4808B5016841F00101016000680022F9
:103E3000052100F0010000900B20FDF75DFF0B2035
:103E4000FDF74CFF002205210C20FDF755FFBDE8D2
:103E500008400C20FDF742BFD844025800B587B097
:103E600006491C226846FCF778FB0021684601F0F1
:103E7000F1F80349086007B000BD0000485B000886
:103E8000000000240D4808B5016841F08001016080
:103E9000016801F080010091016841F001010160B9
:103EA000016801F001010091016841F01001016019
:103EB000006800F01000009008BD0000E0440258C7
:103EC00010B598B000241C210DA8149415941694D4
:103ED000FCF775FB34216846FCF771FB26484FF66A
:103EE000FF722449C0E90014C0E902420461446140
:103EF0008461FFF763FC08B1FCF7DFFC1E4814A9DE
:103F0000149415941694FFF74DFA08B1FCF7D5FCFC
:103F10006020CDE90D04184800220DA90F941094DB
:103F2000119412941394FFF7B7FB08B1FCF7C5FC8A
:103F3000114804220DA9FFF7AFFB08B1FCF7BDFC47
:103F40004FF400500094039401030194CDE9044020
:103F50000294CDE908410848694606940A940C94F5
:103F6000FFF7D0F908B1FCF7A8FC0348FFF76AFB9C
:103F700018B010BD00000140D402002410B588B074
:103F80001B480024621E00944FF08041019402946B
:103F90000394049405940694C0E90014C0E9024215
:103FA00004618461FFF7EBFA08B1FCF786FC104866
:103FB000694600940294FFF7F5F908B1FCF77DFC1F
:103FC0000120002203A9CDE9034009480594069485
:103FD000FFF744FA08B1FCF770FC0548042203A976
:103FE000FFF73CFA002801D0FCF767FC08B010BDD1
:103FF000200300241848002110B5164C0C224FF461
:10400000E1330460C0E90131C160C0E9041281619B
:10401000C161016241628162FFF74CFE08B1FCF7A9
:104020004CFC0D480021FFF757FC08B1FCF745FC9C
:1040300009480021FFF72AFC08B1FCF73EFC0648BE
:10404000FFF702FC002803D0BDE81040FCF735BCA8
:1040500010BD0000001001406C030024FEE7FEE7E5
:104060002DE9F047454D044689464FF0000A28687F
:10407000C04380070AD0414E283E306820F080605F
:104080003060FDF76FFD0746B04608E00120BDE84F
:10409000F08700BFFDF766FDC01B022867D8D8F87F
:1040A00000000001F6D4206829684FF4FE0721F4CF
:1040B0007C313E0241EA00302860207AA389B4F8BE
:1040C00004C040022D4D2D495B1E227CACF1010C39
:1040D0001035091DA0F5007080B2521ECCF3080CFB
:1040E00007EA034340EA0C00184306EA0262104361
:1040F00028600868626920F0C000104308600A6800
:10410000A06922F0200202430A60281D0A6822F0FA
:1041100010020A6002684FF6F873E4699A4342EAB3
:10412000C40202600868B9F1000F40F010020A6092
:1041300011D00868B9F1010F11D040F400100860E7
:10414000D8F80000444640F08060C8F80000FDF751
:1041500009FD05460DE0086840F40020EFE740F453
:104160008010ECE7FDF7FEFC401B022801D903207C
:104170008DE720680001F5D5504688E728440258AD
:104180002DE9F047454D044689464FF0000A28685E
:10419000C04380070AD0414E283E306820F080504E
:1041A0003060FDF7DFFC0746B04608E00120BDE8BF
:1041B000F08700BFFDF7D6FCC01B022867D8D8F8EF
:1041C00000008000F6D4208829684FF4FE0721F013
:1041D0007C713E0241EA00502860207AA389B4F83D
:1041E00004C040022D4D2D495B1E227CACF1010C18
:1041F0001835091DA0F5007080B2521ECCF3080CD2
:1042000007EA034340EA0C00184306EA026210433F
:1042100028600868626920F44060104308600A68FA
:10422000A06922F4007202430A60281D0A6822F481
:1042300080720A6002684FF6F873E4699A4342EAB2
:10424000C40202600868B9F1000F40F480720A608D
:1042500011D00868B9F1010F11D040F080700860EA
:10426000D8F80000444640F08050C8F80000FDF740
:1042700079FC05460DE0086840F48000EFE740F463
:104280000000ECE7FDF76EFC401B022801D903207B
:104290008DE720688000F5D5504688E7284402580D
:1042A000012000F0CBFEFBE710B5FDF761FC01F04B
:1042B0006FFB012803D0BDE8104001F0FBBA10BD30
:1042C00070B59CB04C216846FCF779F9202113A801
:1042D000FCF775F90220FDF741FD1E48016821F445
:1042E000404101600168002401F440411B910168D4
:1042F0008904FCD5022009900121C2030A23C825A4
:10430000CDE900120AAA042682E82900CDE90D10A1
:10431000CDE910640F9068461294FEF74DFD08B188
:1043200072B6FEE740201A9008230501CDE9163049
:1043300013ABCDE918053F21032283E8160013A82B
:104340001146FEF729FB002801D072B6FEE71CB02B
:1043500070BD0000184802582748F0B5274A016888
:1043600041F470010160106800F00F00072804D2CA
:10437000106820F00F00C01D106021490020204C63
:1043800010340B681F4D43F001030B6020600B6875
:104390002B400B60136803F00F03072B04D913683D
:1043A00023F00F03DB1D1360154C174A1834174B0D
:1043B000261D371D2060124C154D28343060261DF7
:1043C0003860371D23603B1D35601C1D3A60251D7C
:1043D0002E1D1860331D22602860326018600A6844
:1043E00043F2D204064B0B4D22F4802260330A6064
:1043F00018602C60F0BD000088ED00E00020005245
:10440000004402587FEDF6EA800201010002020238
:104410000000FF01004000522DE9F0472D4B4FF006
:10442000804A2D4D026898422C4E2D4F2D4C09D0BC
:10443000504507D0A84205D0B04203D0B84201D0C1
:10444000A04205D1D1F804C022F070024CEA020269
:10445000DFF894C0DFF894809842DFF8949015D08C
:10446000504513D0A84211D0B0420FD0B8420DD061
:10447000A0420BD0604509D0404507D0484505D043
:104480001C4DA84202D01C4DA84203D1CD6822F495
:1044900040722A434D6922F080022A43026098420A
:1044A0008A68C2620A68826207D0A04205D060456D
:1044B00003D0404501D0484501D10969016301217C
:1044C00041610169C90703D0016921F0010101615E
:1044D000BDE8F087000001400004004000080040F3
:1044E000000C004000040140004001400044014035
:1044F0000048014000E0004000E400402DE9F04F9A
:10450000DFF88480214EDFF88890DFF888B0026AF7
:10451000036AB042DFF880A022F0020C1F4F23F0A4
:1045200001020262426885698B680C6805EA080529
:1045300025F0030543EA0C0344EA050407D0484587
:1045400005D0584503D0504501D0B84205D1CD68BB
:1045500023F008031D4325F00403B04207D048456B
:1045600005D0584503D0504501D0B84205D122F4BA
:104570004076D1E9055235432A4342608461496857
:1045800041630362BDE8F08F8FFFFEFF0000014032
:104590000004014000400140004401400048014047
:1045A000F0B5DFF87CE01F4C1F4D026A036AA042A1
:1045B00022F0200623F01003036242688369D1F8D9
:1045C00008C00F6803EA0E0323F4407E46EA0C138A
:1045D0004EEA072601D0A84206D1CF6823F0800317
:1045E00043EA071323F04003A0420AD0A84208D0B0
:1045F0000E4CA04205D00E4CA04202D00D4CA04261
:1046000007D1D1E9054522F4406242EA840242EA38
:10461000850242608661496881630362F0BD0000E3
:10462000FF8FFFFE000001400004014000400140F8
:104630000044014000480140F0B5DFF87CE01F4D28
:104640001F4E026A036AA84222F4007723F48073A3
:1046500003624368C269D1F808C002EA0E020C681E
:1046600022F0030E47EA0C2244EA0E0401D0B042C5
:1046700006D1CF6822F4006242EA072222F4806267
:10468000A8420AD0B04208D00E4DA84205D00E4D27
:10469000A84202D00D4DA84207D1D1E9055623F416
:1046A000405343EA051343EA06134360C461496873
:1046B000C1630262F0BD00008FFFFEFF00000140F9
:1046C0000004014000400140004401400048014016
:1046D000F0B5046A026A22F4805202624268C36939
:1046E00024F40054DFF848C08E680D6803EA0C0318
:1046F000104F23F4407344EA0634B84243EA0523DA
:104700000BD00D4DA84208D00C4DA84205D00C4D41
:10471000A84202D00B4DA84204D14D6922F4804238
:1047200042EA85124260C361496801640462F0BDD7
:10473000FF8FFFFE000001400004014000400140E7
:104740000044014000480140F0B5164F164B026A84
:10475000046A984222F4003524F4803303624268EC
:10476000436D0E890C6803EA070344EA030445EA33
:1047700006430BD00D4DA84208D00D4DA84205D0E0
:104780000C4DA84202D00C4DA84204D14D6922F430
:10479000803242EA052242604465496881650362CD
:1047A000F0BD00008FFFFEFF00000140000401404B
:1047B000004001400044014000480140F0B5164F60
:1047C000164B026A046A984224F48013036222F4AE
:1047D00000144268436D0E890D6803EA070344EA3A
:1047E000065443EA05230BD00D4DA84208D00D4DC9
:1047F000A84205D00C4DA84202D00C4DA84204D1CD
:104800004D6922F4802242EA85224260436549686C
:10481000C1650462F0BD0000FF8FFFFE0000014093
:1048200000040140004001400044014000480140B4
:1048300070B51B4C056A066AA04226F001040462AA
:1048400084691AD0B0F1804F17D0164EB04214D000
:10485000154EB04211D0154EB0420ED0144EB0429B
:104860000BD0144EB04208D0134EB04205D0134EB8
:10487000B04202D0124EB04203D124F003041443DC
:1048800001E044F001041A0724F0F00425F00A03C3
:1048900001F00A01194344EA12628261016270BDAB
:1048A000000001400004004000080040000C0040EF
:1048B00000040140001800400040014000E00040BA
:1048C00000E4004070B54FF6FF7404EA0333046A55
:1048D000A025066A05EA011126F01006066224F0FA
:1048E000A0058469294324F4407444EA022222F496
:1048F000704213438361016270BD000030B5416EA8
:10490000B9B101680D4B03F108048A688968C2F3E4
:104910004262490F5D5C615C2D01B5FBF1F1A0F8CD
:104920006A10995CA25C0901B1FBF2F1A0F8681071
:1049300030BD0121A0F86A10F8E70000845B000890
:1049400090F82810090706D50168836B4A6822F49D
:1049500000421A434A6090F82810C90706D001683F
:10496000C36A4A6822F400321A434A6090F8281059
:10497000890706D50168036B4A6822F480321A431E
:104980004A6090F82810490706D50168436B4A68C9
:1049900022F480221A434A6090F82810C90606D5EE
:1049A0000168C36B8A6822F480521A438A6090F8C7
:1049B0002810890606D50168036C8A6822F4005223
:1049C0001A438A6090F82810490611D50168436C93
:1049D0004A6822F480121A434A60416CB1F5801F84
:1049E00006D10168836C4A6822F4C0021A434A6007
:1049F00090F82810090606D50168C26C486820F4B2
:104A000000201043486070472DE9F8430025044614
:104A1000C0F89050FDF7A6F88046206820266FF079
:104A20007E470068000713D5002243463104204624
:104A3000009700F061FA58B1216851E8000F20F0AA
:104A4000800041E80002002AF6D1C4F8886021E025
:104A500020680068400722D5002243464FF48001B9
:104A60002046009700F048FAC8B1206850E8001FBF
:104A700021F4907140E80012002AF6D12068083035
:104A800050E8001F21F0010140E80012002AF5D192
:104A9000C4F88C60032084F88450BDE8F883C4F81F
:104AA0008860C4F88C60E5662567002084F884502F
:104AB000F3E710B5806B0021A0F85E10A0F8561047
:104AC000FEF732FF10BD000010B5026852E8001F6B
:104AD00021F4907142E80013002BF6D10E4B0268CE
:104AE000083252E8001F194042E80014002CF6D1A9
:104AF000C16E012908D1026852E8001F21F010019F
:104B000042E80013002BF6D100212022C0F88C20AF
:104B1000C166416710BD0000FEFFFFEF2DE9F043C5
:104B200004468068E24E87B0E24B2168D4E904274E
:104B3000D4F81CC010430A68002547EA0C07384324
:104B4000324002430A602068E268416821F4405123
:104B5000114341602268A1699A4201D0206A014351
:104B60009668DFF854C3D54FD54806EA0C060E43C5
:104B700096602168666ACA6A22F00F023243CA62EE
:104B80002268BA420ED1006800F0380018286FD0B1
:104B90007ADCB8B308286CD010286BD18BE02828B9
:104BA00068D18EE0C7498A4209D1006800F0070049
:104BB00006285FD2DFE800F0507D7F818385C249FF
:104BC0008A4209D1006800F0070006287BD2DFE89E
:104BD00000F0437072747678BC498A4209D100684B
:104BE00000F0070006286ED2DFE800F03663656744
:104BF000696BB7498A420BD1006800F007000628AC
:104C000061D200E043E0DFE800F0275456585A5CD8
:104C1000B0498A4206D1006800F0380018284CD00C
:104C2000B7DD31E0AC498A4209D1006800F00700E5
:104C3000062848D2DFE800F0103D3F414345A74930
:104C40008A420BD1006800F0070006283BD2DFE85B
:104C500000F0033032343638002035E0A0498A4273
:104C600009D1006800F03800182826D091DD0BE04B
:104C700023E01EE027E09B498A420AD1006800F049
:104C80003800182819D084DD202888D11CE00120A4
:104C90001AE09A4217D18A48001D006800F0070008
:104CA000062810D2DFE800F0030507090B0D0220EB
:104CB0000AE0042008E0082006E0102004E020209C
:104CC00002E0402000E080208749DFF820829A42FD
:104CD000874A4FF400434FEA21174FF000064ED1A8
:104CE00010281AD006DC022809D004280BD0082886
:104CF0007ED10DE020283ED0402879D13DE0FDF75F
:104D000057F8014610E06846FDF764F801990BE09A
:104D100003A8FDF701F9049906E01068800605D59F
:104D20001068C0F3C100C140002970D0606A676894
:104D300038F8102007EB4703B1FBF2F0834257D855
:104D4000B0EB073F54D8002308461946FBF78EFB0B
:104D500002467808130E120243EA012110183A465F
:104D600071410023FBF782FB624AA0F5407191423A
:104D70003ED821688FE03946D8E71946D6E7D4F8FF
:104D80001CC04FF6EF799C4546D1082819D005DCA8
:104D900058B101280CD0042875D10DE0102815D089
:104DA000202835D040286ED134E0FDF745FF01E0E2
:104DB000FDF754FF014610E06846FDF70BF8019936
:104DC0000BE003A8FDF7A8F8049906E01068800638
:104DD00004D51068C0F3C100C140C1B1636A606806
:104DE00038F81330B1FBF3F1490001EB500100E05A
:104DF00049E0B1FBF0F0A0F11001494543D84FF66E
:104E0000F0732168C0F342021840104343E043E0CE
:104E10003946E3E71946E1E7082819D005DC58B11F
:104E200001280CD004282ED10DE0102815D0202800
:104E30002BD0402827D12AE0FDF7FEFE01E0FDF748
:104E40000DFF014610E06846FCF7C4FF01990BE036
:104E500003A8FDF761F8049906E01068800604D500
:104E60001068C0F3C100C140B1B1636A606838F82E
:104E70001330B1FBF3F101EB5001B1FBF0F0A0F105
:104E80001001494505D9012506E03946EDE71946E7
:104E9000EBE7216880B2C8600120A4F86A00A4F89A
:104EA000680028466667A66707B0BDE8F083000083
:104EB000F369FFCF000C0058FFF4FF110010014010
:104EC000544402580044004000480040004C004058
:104ED000005000400014014000780040007C004079
:104EE00000180140001C01400090D0036C5B0008DA
:104EF00000440258FFFC0F002DE9F0479946174681
:104F00000D460446089E4FF0000833E0701C31D077
:104F1000FCF728FEA0EB0900B04218D8BEB120680B
:104F20000168490726D5802D24D0402D22D0C169A3
:104F3000C94309070DD4082505622046FFF7C4FDC3
:104F4000C4F89050012084F88480BDE8F0870320E5
:104F5000FBE7C069C04300050CD421684FF4006032
:104F600008622046FFF7B0FD2021C4F8901084F8B5
:104F70008480ECE72068C06935EA000004D0002096
:104F8000B842C3D00020E0E70120F9E70148FEF76E
:104F9000CDBC00006C030024FEE7090700284FEA9F
:104FA000116104DB00F1E02080F80014704700F08C
:104FB0000F0000F1E02080F8141D70471FB5002499
:104FC0000094019402940394FCF756FE01208DF89E
:104FD0000C001F218DF8081087228DF809208DF80C
:104FE0000D008DF8000068468DF80A408DF80E40DF
:104FF0008DF8014001948DF80B408DF80F40FCF7BF
:105000000DFE0420FCF746FEFCF7BAFDFFF758F949
:10501000FEF738FFFEF704FFFEF7ECFFFEF750FF48
:10502000FEF7ACFFFEF71AFF00F00FF8FEE784284A
:1050300001464FF0000000D0C81C704710B500B901
:10504000012000F02BFB002010BD10B500F04CFB40
:10505000002010BD7FB50D4641690446B0F9080037
:1050600081B1A16971B1FFF7E2FFD4E905122B46C6
:105070008DE807002269D4E9001000F05EFC03907F
:1050800004B070BDFFF7D3FF03A92B46CDE90001A3
:10509000228AD4E9001092B200F022FC012801D04B
:1050A0000020EDE70398EBE72DE9F041184C0F469F
:1050B0000546E6682068001D00F026FA38B9226827
:1050C0000121206992F82C20914088432061681CBE
:1050D00007D137B12168BDE8F0410E48091D00F045
:1050E00059BA20683544B5424560216805D2A06BA5
:1050F000091DBDE8F04100F035BA606B091D00F0F4
:1051000031FAA06A854200D2A562BDE8F0810000B4
:1051100018000024CC0500242DE9F041054600F0DC
:1051200045FA2E4C2E4FA068401CA060206810B19C
:10513000606940B32DE02560A068012829D10026D0
:1051400006EB860007EB800000F0FEF9761C072EC8
:10515000F6D323488C3000F0F7F92148A03000F056
:10516000F3F91F48B43000F0EFF91D48C83000F0E3
:10517000EBF91B48DC3000F0E7F919488C3060632C
:105180001430A06305E0E86A2168C96A814200D84A
:1051900025600120616A491C6162E96A22698840D0
:1051A0001043206101EB8100291D07EB800000F016
:1051B000F1F900F01BFA606900280CD02068E96A58
:1051C000C06A884207D207494FF080500860BFF399
:1051D0004F8FBFF36F8FBDE8F081000018000024EF
:1051E000F004002404ED00E010B5044690F85100EE
:1051F00058B101280CD002280FD0502080F311881C
:10520000BFF34F8FBFF36F8FFEE7206B00F002FA02
:105210002046BDE8104000F0FDB910BD11484FF424
:10522000705110B5420706D00E49C01D20F007008E
:10523000411AC1F570510C4C002301440839A4F106
:10524000180221F00701C4E900030C1A11604B6039
:105250000B60C0E9001494604FF00041546051614C
:1052600010BD0000E00500246C000024144E4FF037
:105270008058144CDFF85090A6F1C80712E000BF28
:1052800000F094F9F068C568281D00F03DF9A068A9
:10529000401EA0606068401E606000F0A7F92846CC
:1052A000FFF7A2FF60680028EAD138680128F9D921
:1052B000C9F80080BFF34F8FBFF36F8FF2E7000094
:1052C000B80500241800002404ED00E02DE9F047A3
:1052D0009A4681466FF00303DDE9098403EB8202FD
:1052E000089E206B104420F00707780707D0502055
:1052F00080F31188BFF34F8FBFF36F8FFEE74FF03E
:10530000000561B1002023180A5C83F834200A5C90
:1053100012B1401C1028F6D384F8435001E084F801
:105320003450072E00D30626E662201DC4E911651D
:1053300000F015F904F1180000F011F9E564C6F168
:105340000700A06184F8505052462461494638460F
:10535000646200F0C1F8B8F1000F206001D0C8F815
:105360000040BDE8F087000030B5114900E011466B
:105370000A688242FBD34B685C18844203D14468BC
:10538000084623444B6043681D18954209D1084CD8
:10539000183C2468A24209D052681A4442600A6844
:1053A00012680260814200D0086030BD0460F9E7F5
:1053B0006C0000240648416B096829B1416BC9683B
:1053C000C9684968816270474FF0FF31FAE7000011
:1053D0001800002408484068401C4FF0500080F33B
:1053E000118804D0BFF34F8FBFF36F8FFEE7BFF379
:1053F0004F8FBFF36F8FFEE7740000242DE9F0415B
:105400000027044600F0A6F9324E306808B9FFF7CD
:1054100005FF706904424ED1C4B3083460070ED052
:1054200004F00700C0F108000444600707D05020D2
:1054300080F31188BFF34F8FBFF36F8FFEE72CB35C
:105440007068844237D82348183001460D6801E05F
:1054500028460D466968A14202D229680029F7D181
:1054600031688D4227D0076829680160083768686D
:10547000011B10290FD92819420708D0502080F3AA
:105480001188BFF34F8FBFF36F8FFEE713E04160CA
:105490006C60FFF769FF69687068401A7060B268F5
:1054A000904200D2B060002072691143C5E900014A
:1054B000F068401CF06000F0DFFA780707D0502059
:1054C00080F31188BFF34F8FBFF36F8FFEE738462D
:1054D000BDE8F0815400002470B5041F094E231F5D
:1054E0004FF0807521F0010125601C1F1960A0F1AB
:1054F00020010B1F266044380A606FF002051D6012
:1055000070BD0000D5530008D0E9013201699A60EE
:10551000D0E901235A604A68824201D182684A6018
:10552000002202610868401E086008687047000099
:1055300010B5044C8023046004F15400086013602B
:1055400010BD0000800000244FF0FF3300F108017F
:105550000022C0E901130260C160016170470021AF
:105560000161704730B50B685A1C02D000F1080287
:1055700002E0026904E02246546825689D42FAD997
:1055800053684B6099608A60516008610168491CEA
:10559000016030BD42684A6093688B6093685960CF
:1055A000916008610168491C01607047502080F3D8
:1055B0001188BFF34F8FBFF36F8F0A494868401CB3
:1055C000486001280CD10848006810F0FF0F07D090
:1055D000502080F31188BFF34F8FBFF36F8FFEE72A
:1055E000704700007400002404ED00E0084948689A
:1055F00028B1401E486001D180F3118870475020C7
:1056000080F31188BFF34F8FBFF36F8FFEE7000069
:105610007400002470B500282AD0164DA0F10804AB
:1056200061686869014207D1502080F31188BFF397
:105630004F8FBFF36F8FFEE722683AB1502080F39F
:105640001188BFF34F8FBFF36F8FFEE78143616017
:1056500000F080F860686968084468602046FFF7D9
:1056600083FE2869401C2861BDE8704000F004BA40
:1056700070BD0000540000244FF0E02000210161C3
:105680004FF47A728161072303490968B1FBF2F193
:10569000491E41610361704710000024020010B5EB
:1056A00014D00F48006B38B1502080F31188BFF33D
:1056B0004F8FBFF36F8FFEE700F04CF800211046CC
:1056C000FFF7F2FC00F0D8F9002807D105494FF0A8
:1056D00080500860BFF34F8FBFF36F8F10BD000085
:1056E0001800002404ED00E010B586B0002405AADF
:1056F00004A9039403A80494FFF71AFFDDE903014A
:1057000000940023CDE9011010480EA1059A00F085
:1057100014F90F490028C86211D0502080F3118875
:10572000BFF34F8FBFF36F8F01224FF0FF308862BE
:105730004A61CC6006B0BDE8104000F041B806B048
:1057400010BD000049444C45000000006D520008A7
:10575000180000240248016B491C016370470000D7
:10576000180000241448016B11B10121C161704778
:105770000021C16111490269B2FA82F2C2F11F022D
:1057800002EB820251F822306BB101EB820101F190
:1057900008034A6852684A609A4201D152684A60D6
:1057A000D16801607047502080F31188BFF34F8F9C
:1057B000BFF36F8FFEE7000018000024F004002400
:1057C00037481CB5374902688A4207D1502080F318
:1057D0001188BFF34F8FBFF36F8FFEE73149006829
:1057E000491E884207D1502080F31188BFF34F8FA4
:1057F000BFF36F8FFEE72C49FF200A7801920870F3
:1058000008788DF800009DF800209DF8000002F057
:10581000F002824207D0502080F31188BFF34F8FEF
:10582000BFF36F8FFEE79DF8002007201F4C02F0AA
:1058300050022270A06005E09DF8002052008DF813
:105840000020401E9DF800201206F5D40328A06019
:1058500007D0502080F31188BFF34F8FBFF36F8FB5
:10586000FEE74FF44070A060019808700C482030AB
:10587000016841F470010160016841F0704101600C
:10588000FFF7FAFE00206060FAF794FD084801680F
:1058900041F040410160FAF779FD00201CBD000095
:1058A00000ED00E071C20F4100E400E0740000244C
:1058B00034EF00E0502010B580F31188BFF34F8F14
:1058C000BFF36F8F00F072F818B104494FF08050A9
:1058D0000860002080F3118810BD000004ED00E096
:1058E0002DE9FF5F994616468A4683469000DDE91A
:1058F0000E87FFF783FD05001CD05420FFF77EFDC7
:10590000040014D00020256384F851004B46CDE9F3
:105910000087CDE90240324651465846FFF7D6FC93
:105920002046FFF7F9FB012004B0BDE8F09F2846B0
:10593000FFF770FE4FF0FF30F6E7F0B585B0DDE918
:105940000B740A9DA7B1DCB154262763022684F8A4
:105950005160002703970DF1100C0095CDE901C4AB
:10596000FFF7B4FC2046FFF7D7FB049805B0F0BD65
:10597000502080F31188BFF34F8FBFF36F8FFEE786
:10598000502080F31188BFF34F8FBFF36F8FFEE776
:105990000548416919B1006B18B10020704701201A
:1059A0007047022070470000180000242DE9F041E4
:1059B0002F4C206B002728B1A069401CA0613846FD
:1059C000BDE8F081E668761CE66013D1606B006884
:1059D00038B1502080F31188BFF34F8FBFF36F8F22
:1059E000FEE7606BA16B6163A063206A401C2062CC
:1059F000FFF7E0FCDFF87C80A06A864209D3606B89
:105A00000068A0B1606BC068C5686868864211D242
:105A1000A0622068C06A00EB800158F821000128CC
:105A200000D90127E0690028C9D00127C7E74FF056
:105A3000FF30EDE7281DFFF767FDA86A18B105F1F3
:105A40001800FFF761FDE96A0120226988401043D0
:105A5000206101EB810108EB8100291DFFF79AFD10
:105A60002068E96AC06A8142C9D30127C7E70000FC
:105A700018000024F00400242DE9F0472C4D286B79
:105A80000024264638B1FFF791FD286B401E28639D
:105A9000286B40B147E0502080F31188BFF34F8F4F
:105AA000BFF36F8FFEE7234F0120A968D9B3A7F199
:105AB000B40980463868E8B1F868C46804F1180091
:105AC000FFF722FD201DFFF71FFDE16A2A6908FA92
:105AD00001F01043286101EB810109EB8100211DD8
